{
	"MultiSender.sol": {
		"multisender": {
			"abi": [
				{
					"inputs": [
						{
							"internalType": "address",
							"name": "target",
							"type": "address"
						}
					],
					"name": "AddressEmptyCode",
					"type": "error"
				},
				{
					"inputs": [
						{
							"internalType": "address",
							"name": "account",
							"type": "address"
						}
					],
					"name": "AddressInsufficientBalance",
					"type": "error"
				},
				{
					"inputs": [],
					"name": "FailedInnerCall",
					"type": "error"
				},
				{
					"inputs": [
						{
							"internalType": "address",
							"name": "token",
							"type": "address"
						}
					],
					"name": "SafeERC20FailedOperation",
					"type": "error"
				},
				{
					"inputs": [
						{
							"internalType": "address",
							"name": "tokenAddress",
							"type": "address"
						},
						{
							"internalType": "address[]",
							"name": "recievers",
							"type": "address[]"
						},
						{
							"internalType": "uint256[]",
							"name": "amount",
							"type": "uint256[]"
						}
					],
					"name": "sendTokens",
					"outputs": [],
					"stateMutability": "nonpayable",
					"type": "function"
				}
			],
			"devdoc": {
				"errors": {
					"AddressEmptyCode(address)": [
						{
							"details": "There's no code at `target` (it is not a contract)."
						}
					],
					"AddressInsufficientBalance(address)": [
						{
							"details": "The ETH balance of the account is not enough to perform the operation."
						}
					],
					"FailedInnerCall()": [
						{
							"details": "A call to an address target failed. The target may have reverted."
						}
					],
					"SafeERC20FailedOperation(address)": [
						{
							"details": "An operation with an ERC20 token failed."
						}
					]
				},
				"kind": "dev",
				"methods": {},
				"version": 1
			},
			"evm": {
				"assembly": "    /* \"MultiSender.sol\":190:1126  contract multisender{... */\n  mstore(0x40, 0x80)\n  callvalue\n  dup1\n  iszero\n  tag_1\n  jumpi\n  0x00\n  dup1\n  revert\ntag_1:\n  pop\n  dataSize(sub_0)\n  dup1\n  dataOffset(sub_0)\n  0x00\n  codecopy\n  0x00\n  return\nstop\n\nsub_0: assembly {\n        /* \"MultiSender.sol\":190:1126  contract multisender{... */\n      mstore(0x40, 0x80)\n      callvalue\n      dup1\n      iszero\n      tag_1\n      jumpi\n      0x00\n      dup1\n      revert\n    tag_1:\n      pop\n      jumpi(tag_2, lt(calldatasize, 0x04))\n      shr(0xe0, calldataload(0x00))\n      dup1\n      0xe83f967b\n      eq\n      tag_3\n      jumpi\n    tag_2:\n      0x00\n      dup1\n      revert\n        /* \"MultiSender.sol\":254:1121  function sendTokens(address tokenAddress, address[] calldata recievers, uint[] calldata amount) external{... */\n    tag_3:\n      tag_4\n      tag_5\n      calldatasize\n      0x04\n      tag_6\n      jump\t// in\n    tag_5:\n      tag_7\n      jump\t// in\n    tag_4:\n      stop\n    tag_7:\n        /* \"MultiSender.sol\":369:385  uint totalAmount */\n      0x00\n      dup1\n        /* \"MultiSender.sol\":443:444  1 */\n      0x01\n        /* \"MultiSender.sol\":430:526  for(uint i = 1; i <= amount.length; i++){... */\n    tag_9:\n        /* \"MultiSender.sol\":446:464  i <= amount.length */\n      dup4\n      dup2\n      gt\n        /* \"MultiSender.sol\":430:526  for(uint i = 1; i <= amount.length; i++){... */\n      tag_10\n      jumpi\n        /* \"MultiSender.sol\":500:506  amount */\n      dup5\n      dup5\n        /* \"MultiSender.sol\":507:512  i - 1 */\n      tag_12\n        /* \"MultiSender.sol\":511:512  1 */\n      0x01\n        /* \"MultiSender.sol\":507:508  i */\n      dup5\n        /* \"MultiSender.sol\":507:512  i - 1 */\n      tag_13\n      jump\t// in\n    tag_12:\n        /* \"MultiSender.sol\":500:514  amount[i - 1 ] */\n      dup2\n      dup2\n      lt\n      tag_15\n      jumpi\n      tag_15\n      tag_16\n      jump\t// in\n    tag_15:\n      swap1\n      pop\n      0x20\n      mul\n      add\n      calldataload\n        /* \"MultiSender.sol\":485:514  totalAmount += amount[i - 1 ] */\n      dup4\n      tag_17\n      swap2\n      swap1\n      tag_18\n      jump\t// in\n    tag_17:\n      swap3\n      pop\n        /* \"MultiSender.sol\":466:469  i++ */\n      dup1\n      tag_19\n      dup2\n      tag_20\n      jump\t// in\n    tag_19:\n      swap2\n      pop\n      pop\n        /* \"MultiSender.sol\":430:526  for(uint i = 1; i <= amount.length; i++){... */\n      jump(tag_9)\n    tag_10:\n      pop\n        /* \"MultiSender.sol\":538:615  IERC20(tokenAddress).safeTransferFrom(msg.sender, address(this), totalAmount) */\n      tag_21\n      sub(shl(0xa0, 0x01), 0x01)\n        /* \"MultiSender.sol\":538:575  IERC20(tokenAddress).safeTransferFrom */\n      dup9\n      and\n        /* \"MultiSender.sol\":576:586  msg.sender */\n      caller\n        /* \"MultiSender.sol\":596:600  this */\n      address\n        /* \"MultiSender.sol\":603:614  totalAmount */\n      dup6\n        /* \"MultiSender.sol\":538:575  IERC20(tokenAddress).safeTransferFrom */\n      tag_22\n        /* \"MultiSender.sol\":538:615  IERC20(tokenAddress).safeTransferFrom(msg.sender, address(this), totalAmount) */\n      jump\t// in\n    tag_21:\n        /* \"MultiSender.sol\":641:642  1 */\n      0x01\n        /* \"MultiSender.sol\":628:939  for(uint i = 1; i <= recievers.length; i++){... */\n    tag_23:\n        /* \"MultiSender.sol\":644:665  i <= recievers.length */\n      dup6\n      dup2\n      gt\n        /* \"MultiSender.sol\":628:939  for(uint i = 1; i <= recievers.length; i++){... */\n      tag_24\n      jumpi\n        /* \"MultiSender.sol\":712:742  totalAmount - totaalAmountSent */\n      tag_26\n        /* \"MultiSender.sol\":726:742  totaalAmountSent */\n      dup3\n        /* \"MultiSender.sol\":712:723  totalAmount */\n      dup5\n        /* \"MultiSender.sol\":712:742  totalAmount - totaalAmountSent */\n      tag_13\n      jump\t// in\n    tag_26:\n        /* \"MultiSender.sol\":694:700  amount */\n      dup6\n      dup6\n        /* \"MultiSender.sol\":701:706  i - 1 */\n      tag_27\n        /* \"MultiSender.sol\":705:706  1 */\n      0x01\n        /* \"MultiSender.sol\":701:702  i */\n      dup6\n        /* \"MultiSender.sol\":701:706  i - 1 */\n      tag_13\n      jump\t// in\n    tag_27:\n        /* \"MultiSender.sol\":694:707  amount[i - 1] */\n      dup2\n      dup2\n      lt\n      tag_29\n      jumpi\n      tag_29\n      tag_16\n      jump\t// in\n    tag_29:\n      swap1\n      pop\n      0x20\n      mul\n      add\n      calldataload\n        /* \"MultiSender.sol\":694:743  amount[i - 1] <= (totalAmount - totaalAmountSent) */\n      gt\n      iszero\n        /* \"MultiSender.sol\":686:768  require(amount[i - 1] <= (totalAmount - totaalAmountSent), \"Insufficient Balance\") */\n      tag_30\n      jumpi\n      mload(0x40)\n      shl(0xe5, 0x461bcd)\n      dup2\n      mstore\n        /* \"#utility.yul\":2285:2287   */\n      0x20\n        /* \"MultiSender.sol\":686:768  require(amount[i - 1] <= (totalAmount - totaalAmountSent), \"Insufficient Balance\") */\n      0x04\n      dup3\n      add\n        /* \"#utility.yul\":2267:2288   */\n      mstore\n        /* \"#utility.yul\":2324:2326   */\n      0x14\n        /* \"#utility.yul\":2304:2322   */\n      0x24\n      dup3\n      add\n        /* \"#utility.yul\":2297:2327   */\n      mstore\n      shl(0x60, 0x496e73756666696369656e742042616c616e6365)\n        /* \"#utility.yul\":2343:2361   */\n      0x44\n      dup3\n      add\n        /* \"#utility.yul\":2336:2386   */\n      mstore\n        /* \"#utility.yul\":2403:2421   */\n      0x64\n      add\n        /* \"MultiSender.sol\":686:768  require(amount[i - 1] <= (totalAmount - totaalAmountSent), \"Insufficient Balance\") */\n    tag_31:\n      mload(0x40)\n      dup1\n      swap2\n      sub\n      swap1\n      revert\n    tag_30:\n        /* \"MultiSender.sol\":817:823  amount */\n      dup5\n      dup5\n        /* \"MultiSender.sol\":824:829  i - 1 */\n      tag_33\n        /* \"MultiSender.sol\":828:829  1 */\n      0x01\n        /* \"MultiSender.sol\":824:825  i */\n      dup5\n        /* \"MultiSender.sol\":824:829  i - 1 */\n      tag_13\n      jump\t// in\n    tag_33:\n        /* \"MultiSender.sol\":817:830  amount[i - 1] */\n      dup2\n      dup2\n      lt\n      tag_35\n      jumpi\n      tag_35\n      tag_16\n      jump\t// in\n    tag_35:\n      swap1\n      pop\n      0x20\n      mul\n      add\n      calldataload\n        /* \"MultiSender.sol\":797:830  totaalAmountSent += amount[i - 1] */\n      dup3\n      tag_36\n      swap2\n      swap1\n      tag_18\n      jump\t// in\n    tag_36:\n      swap2\n      pop\n        /* \"MultiSender.sol\":859:925  IERC20(tokenAddress).safeTransfer(recievers[i - 1], amount[i - 1]) */\n      tag_37\n        /* \"MultiSender.sol\":893:902  recievers */\n      dup8\n      dup8\n        /* \"MultiSender.sol\":903:908  i - 1 */\n      tag_38\n        /* \"MultiSender.sol\":907:908  1 */\n      0x01\n        /* \"MultiSender.sol\":903:904  i */\n      dup6\n        /* \"MultiSender.sol\":903:908  i - 1 */\n      tag_13\n      jump\t// in\n    tag_38:\n        /* \"MultiSender.sol\":893:909  recievers[i - 1] */\n      dup2\n      dup2\n      lt\n      tag_40\n      jumpi\n      tag_40\n      tag_16\n      jump\t// in\n    tag_40:\n      swap1\n      pop\n      0x20\n      mul\n      add\n      0x20\n      dup2\n      add\n      swap1\n      tag_41\n      swap2\n      swap1\n      tag_42\n      jump\t// in\n    tag_41:\n        /* \"MultiSender.sol\":911:917  amount */\n      dup7\n      dup7\n        /* \"MultiSender.sol\":918:923  i - 1 */\n      tag_43\n        /* \"MultiSender.sol\":922:923  1 */\n      0x01\n        /* \"MultiSender.sol\":918:919  i */\n      dup7\n        /* \"MultiSender.sol\":918:923  i - 1 */\n      tag_13\n      jump\t// in\n    tag_43:\n        /* \"MultiSender.sol\":911:924  amount[i - 1] */\n      dup2\n      dup2\n      lt\n      tag_45\n      jumpi\n      tag_45\n      tag_16\n      jump\t// in\n    tag_45:\n      swap1\n      pop\n      0x20\n      mul\n      add\n      calldataload\n        /* \"MultiSender.sol\":866:878  tokenAddress */\n      dup11\n      sub(shl(0xa0, 0x01), 0x01)\n        /* \"MultiSender.sol\":859:892  IERC20(tokenAddress).safeTransfer */\n      and\n      tag_46\n      swap1\n        /* \"MultiSender.sol\":859:925  IERC20(tokenAddress).safeTransfer(recievers[i - 1], amount[i - 1]) */\n      swap3\n      swap2\n      swap1\n      0xffffffff\n      and\n      jump\t// in\n    tag_37:\n        /* \"MultiSender.sol\":667:670  i++ */\n      dup1\n      tag_47\n      dup2\n      tag_20\n      jump\t// in\n    tag_47:\n      swap2\n      pop\n      pop\n        /* \"MultiSender.sol\":628:939  for(uint i = 1; i <= recievers.length; i++){... */\n      jump(tag_23)\n    tag_24:\n      pop\n        /* \"MultiSender.sol\":953:984  totalAmount -= totaalAmountSent */\n      tag_48\n        /* \"MultiSender.sol\":968:984  totaalAmountSent */\n      dup2\n        /* \"MultiSender.sol\":953:984  totalAmount -= totaalAmountSent */\n      dup4\n      tag_13\n      jump\t// in\n    tag_48:\n      swap2\n      pop\n        /* \"MultiSender.sol\":1000:1015  totalAmount > 0 */\n      dup2\n      iszero\n        /* \"MultiSender.sol\":997:1101  if(totalAmount > 0){... */\n      tag_50\n      jumpi\n        /* \"MultiSender.sol\":1031:1089  IERC20(tokenAddress).safeTransfer(msg.sender, totalAmount) */\n      tag_50\n      sub(shl(0xa0, 0x01), 0x01)\n        /* \"MultiSender.sol\":1031:1064  IERC20(tokenAddress).safeTransfer */\n      dup9\n      and\n        /* \"MultiSender.sol\":1065:1075  msg.sender */\n      caller\n        /* \"MultiSender.sol\":1077:1088  totalAmount */\n      dup5\n        /* \"MultiSender.sol\":1031:1064  IERC20(tokenAddress).safeTransfer */\n      tag_46\n        /* \"MultiSender.sol\":1031:1089  IERC20(tokenAddress).safeTransfer(msg.sender, totalAmount) */\n      jump\t// in\n    tag_50:\n        /* \"MultiSender.sol\":358:1121  {... */\n      pop\n      pop\n        /* \"MultiSender.sol\":254:1121  function sendTokens(address tokenAddress, address[] calldata recievers, uint[] calldata amount) external{... */\n      pop\n      pop\n      pop\n      pop\n      pop\n      jump\t// out\n        /* \"@openzeppelin/contracts/token/ERC20/utils/SafeERC20.sol\":1702:1890  function safeTransferFrom(IERC20 token, address from, address to, uint256 value) internal {... */\n    tag_22:\n        /* \"@openzeppelin/contracts/token/ERC20/utils/SafeERC20.sol\":1829:1882  abi.encodeCall(token.transferFrom, (from, to, value)) */\n      mload(0x40)\n      sub(shl(0xa0, 0x01), 0x01)\n        /* \"#utility.yul\":2881:2896   */\n      dup5\n      dup2\n      and\n        /* \"@openzeppelin/contracts/token/ERC20/utils/SafeERC20.sol\":1829:1882  abi.encodeCall(token.transferFrom, (from, to, value)) */\n      0x24\n      dup4\n      add\n        /* \"#utility.yul\":2863:2897   */\n      mstore\n        /* \"#utility.yul\":2933:2948   */\n      dup4\n      dup2\n      and\n        /* \"#utility.yul\":2913:2931   */\n      0x44\n      dup4\n      add\n        /* \"#utility.yul\":2906:2949   */\n      mstore\n        /* \"#utility.yul\":2965:2983   */\n      0x64\n      dup3\n      add\n        /* \"#utility.yul\":2958:2992   */\n      dup4\n      swap1\n      mstore\n        /* \"@openzeppelin/contracts/token/ERC20/utils/SafeERC20.sol\":1802:1883  _callOptionalReturn(token, abi.encodeCall(token.transferFrom, (from, to, value))) */\n      tag_52\n      swap2\n        /* \"@openzeppelin/contracts/token/ERC20/utils/SafeERC20.sol\":1822:1827  token */\n      dup7\n      swap2\n        /* \"@openzeppelin/contracts/token/ERC20/utils/SafeERC20.sol\":1844:1862  token.transferFrom */\n      dup3\n      and\n      swap1\n      0x23b872dd\n      swap1\n        /* \"#utility.yul\":2798:2816   */\n      0x84\n      add\n        /* \"@openzeppelin/contracts/token/ERC20/utils/SafeERC20.sol\":1829:1882  abi.encodeCall(token.transferFrom, (from, to, value)) */\n    tag_53:\n      mload(0x40)\n      0x20\n      dup2\n      dup4\n      sub\n      sub\n      dup2\n      mstore\n      swap1\n      0x40\n      mstore\n      swap2\n      pop\n      0xe0\n      shl\n      0x20\n      dup3\n      add\n      dup1\n      mload\n      sub(shl(0xe0, 0x01), 0x01)\n      dup4\n      dup2\n      dup4\n      and\n      or\n      dup4\n      mstore\n      pop\n      pop\n      pop\n      pop\n        /* \"@openzeppelin/contracts/token/ERC20/utils/SafeERC20.sol\":1802:1821  _callOptionalReturn */\n      tag_55\n        /* \"@openzeppelin/contracts/token/ERC20/utils/SafeERC20.sol\":1802:1883  _callOptionalReturn(token, abi.encodeCall(token.transferFrom, (from, to, value))) */\n      jump\t// in\n    tag_52:\n        /* \"@openzeppelin/contracts/token/ERC20/utils/SafeERC20.sol\":1702:1890  function safeTransferFrom(IERC20 token, address from, address to, uint256 value) internal {... */\n      pop\n      pop\n      pop\n      pop\n      jump\t// out\n        /* \"@openzeppelin/contracts/token/ERC20/utils/SafeERC20.sol\":1303:1463  function safeTransfer(IERC20 token, address to, uint256 value) internal {... */\n    tag_46:\n        /* \"@openzeppelin/contracts/token/ERC20/utils/SafeERC20.sol\":1412:1455  abi.encodeCall(token.transfer, (to, value)) */\n      mload(0x40)\n      sub(shl(0xa0, 0x01), 0x01)\n        /* \"#utility.yul\":3195:3227   */\n      dup4\n      dup2\n      and\n        /* \"@openzeppelin/contracts/token/ERC20/utils/SafeERC20.sol\":1412:1455  abi.encodeCall(token.transfer, (to, value)) */\n      0x24\n      dup4\n      add\n        /* \"#utility.yul\":3177:3228   */\n      mstore\n        /* \"#utility.yul\":3244:3262   */\n      0x44\n      dup3\n      add\n        /* \"#utility.yul\":3237:3271   */\n      dup4\n      swap1\n      mstore\n        /* \"@openzeppelin/contracts/token/ERC20/utils/SafeERC20.sol\":1385:1456  _callOptionalReturn(token, abi.encodeCall(token.transfer, (to, value))) */\n      tag_57\n      swap2\n        /* \"@openzeppelin/contracts/token/ERC20/utils/SafeERC20.sol\":1405:1410  token */\n      dup6\n      swap2\n        /* \"@openzeppelin/contracts/token/ERC20/utils/SafeERC20.sol\":1427:1441  token.transfer */\n      dup3\n      and\n      swap1\n      0xa9059cbb\n      swap1\n        /* \"#utility.yul\":3150:3168   */\n      0x64\n      add\n        /* \"@openzeppelin/contracts/token/ERC20/utils/SafeERC20.sol\":1412:1455  abi.encodeCall(token.transfer, (to, value)) */\n      tag_53\n        /* \"#utility.yul\":3003:3277   */\n      jump\n        /* \"@openzeppelin/contracts/token/ERC20/utils/SafeERC20.sol\":1385:1456  _callOptionalReturn(token, abi.encodeCall(token.transfer, (to, value))) */\n    tag_57:\n        /* \"@openzeppelin/contracts/token/ERC20/utils/SafeERC20.sol\":1303:1463  function safeTransfer(IERC20 token, address to, uint256 value) internal {... */\n      pop\n      pop\n      pop\n      jump\t// out\n        /* \"@openzeppelin/contracts/token/ERC20/utils/SafeERC20.sol\":4059:4688  function _callOptionalReturn(IERC20 token, bytes memory data) private {... */\n    tag_55:\n        /* \"@openzeppelin/contracts/token/ERC20/utils/SafeERC20.sol\":4478:4501  bytes memory returndata */\n      0x00\n        /* \"@openzeppelin/contracts/token/ERC20/utils/SafeERC20.sol\":4504:4537  address(token).functionCall(data) */\n      tag_61\n      sub(shl(0xa0, 0x01), 0x01)\n        /* \"@openzeppelin/contracts/token/ERC20/utils/SafeERC20.sol\":4504:4531  address(token).functionCall */\n      dup5\n      and\n        /* \"@openzeppelin/contracts/token/ERC20/utils/SafeERC20.sol\":4532:4536  data */\n      dup4\n        /* \"@openzeppelin/contracts/token/ERC20/utils/SafeERC20.sol\":4504:4531  address(token).functionCall */\n      tag_62\n        /* \"@openzeppelin/contracts/token/ERC20/utils/SafeERC20.sol\":4504:4537  address(token).functionCall(data) */\n      jump\t// in\n    tag_61:\n        /* \"@openzeppelin/contracts/token/ERC20/utils/SafeERC20.sol\":4478:4537  bytes memory returndata = address(token).functionCall(data) */\n      swap1\n      pop\n        /* \"@openzeppelin/contracts/token/ERC20/utils/SafeERC20.sol\":4551:4561  returndata */\n      dup1\n        /* \"@openzeppelin/contracts/token/ERC20/utils/SafeERC20.sol\":4551:4568  returndata.length */\n      mload\n        /* \"@openzeppelin/contracts/token/ERC20/utils/SafeERC20.sol\":4572:4573  0 */\n      0x00\n        /* \"@openzeppelin/contracts/token/ERC20/utils/SafeERC20.sol\":4551:4573  returndata.length != 0 */\n      eq\n      iszero\n        /* \"@openzeppelin/contracts/token/ERC20/utils/SafeERC20.sol\":4551:4608  returndata.length != 0 && !abi.decode(returndata, (bool)) */\n      dup1\n      iszero\n      tag_63\n      jumpi\n      pop\n        /* \"@openzeppelin/contracts/token/ERC20/utils/SafeERC20.sol\":4589:4599  returndata */\n      dup1\n        /* \"@openzeppelin/contracts/token/ERC20/utils/SafeERC20.sol\":4578:4608  abi.decode(returndata, (bool)) */\n      dup1\n      0x20\n      add\n      swap1\n      mload\n      dup2\n      add\n      swap1\n      tag_64\n      swap2\n      swap1\n      tag_65\n      jump\t// in\n    tag_64:\n        /* \"@openzeppelin/contracts/token/ERC20/utils/SafeERC20.sol\":4577:4608  !abi.decode(returndata, (bool)) */\n      iszero\n        /* \"@openzeppelin/contracts/token/ERC20/utils/SafeERC20.sol\":4551:4608  returndata.length != 0 && !abi.decode(returndata, (bool)) */\n    tag_63:\n        /* \"@openzeppelin/contracts/token/ERC20/utils/SafeERC20.sol\":4547:4682  if (returndata.length != 0 && !abi.decode(returndata, (bool))) {... */\n      iszero\n      tag_57\n      jumpi\n        /* \"@openzeppelin/contracts/token/ERC20/utils/SafeERC20.sol\":4631:4671  SafeERC20FailedOperation(address(token)) */\n      mload(0x40)\n      shl(0xe0, 0x5274afe7)\n      dup2\n      mstore\n      sub(shl(0xa0, 0x01), 0x01)\n        /* \"#utility.yul\":3728:3760   */\n      dup5\n      and\n        /* \"@openzeppelin/contracts/token/ERC20/utils/SafeERC20.sol\":4631:4671  SafeERC20FailedOperation(address(token)) */\n      0x04\n      dup3\n      add\n        /* \"#utility.yul\":3710:3761   */\n      mstore\n        /* \"#utility.yul\":3683:3701   */\n      0x24\n      add\n        /* \"@openzeppelin/contracts/token/ERC20/utils/SafeERC20.sol\":4631:4671  SafeERC20FailedOperation(address(token)) */\n      tag_31\n        /* \"#utility.yul\":3564:3767   */\n      jump\n        /* \"@openzeppelin/contracts/utils/Address.sol\":2705:2856  function functionCall(address target, bytes memory data) internal returns (bytes memory) {... */\n    tag_62:\n        /* \"@openzeppelin/contracts/utils/Address.sol\":2780:2792  bytes memory */\n      0x60\n        /* \"@openzeppelin/contracts/utils/Address.sol\":2811:2849  functionCallWithValue(target, data, 0) */\n      tag_70\n        /* \"@openzeppelin/contracts/utils/Address.sol\":2833:2839  target */\n      dup4\n        /* \"@openzeppelin/contracts/utils/Address.sol\":2841:2845  data */\n      dup4\n        /* \"@openzeppelin/contracts/utils/Address.sol\":2847:2848  0 */\n      0x00\n        /* \"@openzeppelin/contracts/utils/Address.sol\":2811:2832  functionCallWithValue */\n      tag_71\n        /* \"@openzeppelin/contracts/utils/Address.sol\":2811:2849  functionCallWithValue(target, data, 0) */\n      jump\t// in\n    tag_70:\n        /* \"@openzeppelin/contracts/utils/Address.sol\":2804:2849  return functionCallWithValue(target, data, 0) */\n      swap1\n      pop\n        /* \"@openzeppelin/contracts/utils/Address.sol\":2705:2856  function functionCall(address target, bytes memory data) internal returns (bytes memory) {... */\n    tag_69:\n      swap3\n      swap2\n      pop\n      pop\n      jump\t// out\n        /* \"@openzeppelin/contracts/utils/Address.sol\":3180:3572  function functionCallWithValue(address target, bytes memory data, uint256 value) internal returns (bytes memory) {... */\n    tag_71:\n        /* \"@openzeppelin/contracts/utils/Address.sol\":3279:3291  bytes memory */\n      0x60\n        /* \"@openzeppelin/contracts/utils/Address.sol\":3331:3336  value */\n      dup2\n        /* \"@openzeppelin/contracts/utils/Address.sol\":3307:3328  address(this).balance */\n      selfbalance\n        /* \"@openzeppelin/contracts/utils/Address.sol\":3307:3336  address(this).balance < value */\n      lt\n        /* \"@openzeppelin/contracts/utils/Address.sol\":3303:3411  if (address(this).balance < value) {... */\n      iszero\n      tag_73\n      jumpi\n        /* \"@openzeppelin/contracts/utils/Address.sol\":3359:3400  AddressInsufficientBalance(address(this)) */\n      mload(0x40)\n      shl(0xe0, 0xcd786059)\n      dup2\n      mstore\n        /* \"@openzeppelin/contracts/utils/Address.sol\":3394:3398  this */\n      address\n        /* \"@openzeppelin/contracts/utils/Address.sol\":3359:3400  AddressInsufficientBalance(address(this)) */\n      0x04\n      dup3\n      add\n        /* \"#utility.yul\":3710:3761   */\n      mstore\n        /* \"#utility.yul\":3683:3701   */\n      0x24\n      add\n        /* \"@openzeppelin/contracts/utils/Address.sol\":3359:3400  AddressInsufficientBalance(address(this)) */\n      tag_31\n        /* \"#utility.yul\":3564:3767   */\n      jump\n        /* \"@openzeppelin/contracts/utils/Address.sol\":3303:3411  if (address(this).balance < value) {... */\n    tag_73:\n        /* \"@openzeppelin/contracts/utils/Address.sol\":3421:3433  bool success */\n      0x00\n        /* \"@openzeppelin/contracts/utils/Address.sol\":3435:3458  bytes memory returndata */\n      dup1\n        /* \"@openzeppelin/contracts/utils/Address.sol\":3462:3468  target */\n      dup6\n      sub(shl(0xa0, 0x01), 0x01)\n        /* \"@openzeppelin/contracts/utils/Address.sol\":3462:3473  target.call */\n      and\n        /* \"@openzeppelin/contracts/utils/Address.sol\":3481:3486  value */\n      dup5\n        /* \"@openzeppelin/contracts/utils/Address.sol\":3488:3492  data */\n      dup7\n        /* \"@openzeppelin/contracts/utils/Address.sol\":3462:3493  target.call{value: value}(data) */\n      mload(0x40)\n      tag_75\n      swap2\n      swap1\n      tag_76\n      jump\t// in\n    tag_75:\n      0x00\n      mload(0x40)\n      dup1\n      dup4\n      sub\n      dup2\n      dup6\n      dup8\n      gas\n      call\n      swap3\n      pop\n      pop\n      pop\n      returndatasize\n      dup1\n      0x00\n      dup2\n      eq\n      tag_79\n      jumpi\n      mload(0x40)\n      swap2\n      pop\n      and(add(returndatasize, 0x3f), not(0x1f))\n      dup3\n      add\n      0x40\n      mstore\n      returndatasize\n      dup3\n      mstore\n      returndatasize\n      0x00\n      0x20\n      dup5\n      add\n      returndatacopy\n      jump(tag_78)\n    tag_79:\n      0x60\n      swap2\n      pop\n    tag_78:\n      pop\n        /* \"@openzeppelin/contracts/utils/Address.sol\":3420:3493  (bool success, bytes memory returndata) = target.call{value: value}(data) */\n      swap2\n      pop\n      swap2\n      pop\n        /* \"@openzeppelin/contracts/utils/Address.sol\":3510:3565  verifyCallResultFromTarget(target, success, returndata) */\n      tag_80\n        /* \"@openzeppelin/contracts/utils/Address.sol\":3537:3543  target */\n      dup7\n        /* \"@openzeppelin/contracts/utils/Address.sol\":3545:3552  success */\n      dup4\n        /* \"@openzeppelin/contracts/utils/Address.sol\":3554:3564  returndata */\n      dup4\n        /* \"@openzeppelin/contracts/utils/Address.sol\":3510:3536  verifyCallResultFromTarget */\n      tag_81\n        /* \"@openzeppelin/contracts/utils/Address.sol\":3510:3565  verifyCallResultFromTarget(target, success, returndata) */\n      jump\t// in\n    tag_80:\n        /* \"@openzeppelin/contracts/utils/Address.sol\":3503:3565  return verifyCallResultFromTarget(target, success, returndata) */\n      swap3\n      pop\n      pop\n      pop\n        /* \"@openzeppelin/contracts/utils/Address.sol\":3180:3572  function functionCallWithValue(address target, bytes memory data, uint256 value) internal returns (bytes memory) {... */\n    tag_72:\n      swap4\n      swap3\n      pop\n      pop\n      pop\n      jump\t// out\n        /* \"@openzeppelin/contracts/utils/Address.sol\":4625:5207  function verifyCallResultFromTarget(... */\n    tag_81:\n        /* \"@openzeppelin/contracts/utils/Address.sol\":4769:4781  bytes memory */\n      0x60\n        /* \"@openzeppelin/contracts/utils/Address.sol\":4798:4805  success */\n      dup3\n        /* \"@openzeppelin/contracts/utils/Address.sol\":4793:5201  if (!success) {... */\n      tag_83\n      jumpi\n        /* \"@openzeppelin/contracts/utils/Address.sol\":4821:4840  _revert(returndata) */\n      tag_84\n        /* \"@openzeppelin/contracts/utils/Address.sol\":4829:4839  returndata */\n      dup3\n        /* \"@openzeppelin/contracts/utils/Address.sol\":4821:4828  _revert */\n      tag_85\n        /* \"@openzeppelin/contracts/utils/Address.sol\":4821:4840  _revert(returndata) */\n      jump\t// in\n    tag_84:\n        /* \"@openzeppelin/contracts/utils/Address.sol\":4793:5201  if (!success) {... */\n      jump(tag_72)\n    tag_83:\n        /* \"@openzeppelin/contracts/utils/Address.sol\":5045:5062  returndata.length */\n      dup2\n      mload\n        /* \"@openzeppelin/contracts/utils/Address.sol\":5045:5067  returndata.length == 0 */\n      iszero\n        /* \"@openzeppelin/contracts/utils/Address.sol\":5045:5094  returndata.length == 0 && target.code.length == 0 */\n      dup1\n      iszero\n      tag_87\n      jumpi\n      pop\n      sub(shl(0xa0, 0x01), 0x01)\n        /* \"@openzeppelin/contracts/utils/Address.sol\":5071:5089  target.code.length */\n      dup5\n      and\n      extcodesize\n        /* \"@openzeppelin/contracts/utils/Address.sol\":5071:5094  target.code.length == 0 */\n      iszero\n        /* \"@openzeppelin/contracts/utils/Address.sol\":5045:5094  returndata.length == 0 && target.code.length == 0 */\n    tag_87:\n        /* \"@openzeppelin/contracts/utils/Address.sol\":5041:5160  if (returndata.length == 0 && target.code.length == 0) {... */\n      iszero\n      tag_88\n      jumpi\n        /* \"@openzeppelin/contracts/utils/Address.sol\":5121:5145  AddressEmptyCode(target) */\n      mload(0x40)\n      shl(0xe0, 0x9996b315)\n      dup2\n      mstore\n      sub(shl(0xa0, 0x01), 0x01)\n        /* \"#utility.yul\":3728:3760   */\n      dup6\n      and\n        /* \"@openzeppelin/contracts/utils/Address.sol\":5121:5145  AddressEmptyCode(target) */\n      0x04\n      dup3\n      add\n        /* \"#utility.yul\":3710:3761   */\n      mstore\n        /* \"#utility.yul\":3683:3701   */\n      0x24\n      add\n        /* \"@openzeppelin/contracts/utils/Address.sol\":5121:5145  AddressEmptyCode(target) */\n      tag_31\n        /* \"#utility.yul\":3564:3767   */\n      jump\n        /* \"@openzeppelin/contracts/utils/Address.sol\":5041:5160  if (returndata.length == 0 && target.code.length == 0) {... */\n    tag_88:\n      pop\n        /* \"@openzeppelin/contracts/utils/Address.sol\":5180:5190  returndata */\n      dup1\n        /* \"@openzeppelin/contracts/utils/Address.sol\":5173:5190  return returndata */\n      jump(tag_72)\n        /* \"@openzeppelin/contracts/utils/Address.sol\":5743:6259  function _revert(bytes memory returndata) private pure {... */\n    tag_85:\n        /* \"@openzeppelin/contracts/utils/Address.sol\":5874:5891  returndata.length */\n      dup1\n      mload\n        /* \"@openzeppelin/contracts/utils/Address.sol\":5874:5895  returndata.length > 0 */\n      iszero\n        /* \"@openzeppelin/contracts/utils/Address.sol\":5870:6253  if (returndata.length > 0) {... */\n      tag_91\n      jumpi\n        /* \"@openzeppelin/contracts/utils/Address.sol\":6102:6112  returndata */\n      dup1\n        /* \"@openzeppelin/contracts/utils/Address.sol\":6096:6113  mload(returndata) */\n      mload\n        /* \"@openzeppelin/contracts/utils/Address.sol\":6158:6173  returndata_size */\n      dup1\n        /* \"@openzeppelin/contracts/utils/Address.sol\":6145:6155  returndata */\n      dup3\n        /* \"@openzeppelin/contracts/utils/Address.sol\":6141:6143  32 */\n      0x20\n        /* \"@openzeppelin/contracts/utils/Address.sol\":6137:6156  add(32, returndata) */\n      add\n        /* \"@openzeppelin/contracts/utils/Address.sol\":6130:6174  revert(add(32, returndata), returndata_size) */\n      revert\n        /* \"@openzeppelin/contracts/utils/Address.sol\":5870:6253  if (returndata.length > 0) {... */\n    tag_91:\n        /* \"@openzeppelin/contracts/utils/Address.sol\":6225:6242  FailedInnerCall() */\n      mload(0x40)\n      shl(0xe1, 0x0a12f521)\n      dup2\n      mstore\n      0x04\n      add\n      mload(0x40)\n      dup1\n      swap2\n      sub\n      swap1\n      revert\n        /* \"#utility.yul\":14:187   */\n    tag_93:\n        /* \"#utility.yul\":82:102   */\n      dup1\n      calldataload\n      sub(shl(0xa0, 0x01), 0x01)\n        /* \"#utility.yul\":131:162   */\n      dup2\n      and\n        /* \"#utility.yul\":121:163   */\n      dup2\n      eq\n        /* \"#utility.yul\":111:181   */\n      tag_98\n      jumpi\n        /* \"#utility.yul\":177:178   */\n      0x00\n        /* \"#utility.yul\":174:175   */\n      dup1\n        /* \"#utility.yul\":167:179   */\n      revert\n        /* \"#utility.yul\":111:181   */\n    tag_98:\n        /* \"#utility.yul\":14:187   */\n      swap2\n      swap1\n      pop\n      jump\t// out\n        /* \"#utility.yul\":192:559   */\n    tag_94:\n        /* \"#utility.yul\":255:263   */\n      0x00\n        /* \"#utility.yul\":265:271   */\n      dup1\n        /* \"#utility.yul\":319:322   */\n      dup4\n        /* \"#utility.yul\":312:316   */\n      0x1f\n        /* \"#utility.yul\":304:310   */\n      dup5\n        /* \"#utility.yul\":300:317   */\n      add\n        /* \"#utility.yul\":296:323   */\n      slt\n        /* \"#utility.yul\":286:341   */\n      tag_100\n      jumpi\n        /* \"#utility.yul\":337:338   */\n      0x00\n        /* \"#utility.yul\":334:335   */\n      dup1\n        /* \"#utility.yul\":327:339   */\n      revert\n        /* \"#utility.yul\":286:341   */\n    tag_100:\n      pop\n        /* \"#utility.yul\":360:380   */\n      dup2\n      calldataload\n        /* \"#utility.yul\":403:421   */\n      0xffffffffffffffff\n        /* \"#utility.yul\":392:422   */\n      dup2\n      gt\n        /* \"#utility.yul\":389:439   */\n      iszero\n      tag_101\n      jumpi\n        /* \"#utility.yul\":435:436   */\n      0x00\n        /* \"#utility.yul\":432:433   */\n      dup1\n        /* \"#utility.yul\":425:437   */\n      revert\n        /* \"#utility.yul\":389:439   */\n    tag_101:\n        /* \"#utility.yul\":472:476   */\n      0x20\n        /* \"#utility.yul\":464:470   */\n      dup4\n        /* \"#utility.yul\":460:477   */\n      add\n        /* \"#utility.yul\":448:477   */\n      swap2\n      pop\n        /* \"#utility.yul\":532:535   */\n      dup4\n        /* \"#utility.yul\":525:529   */\n      0x20\n        /* \"#utility.yul\":515:521   */\n      dup3\n        /* \"#utility.yul\":512:513   */\n      0x05\n        /* \"#utility.yul\":508:522   */\n      shl\n        /* \"#utility.yul\":500:506   */\n      dup6\n        /* \"#utility.yul\":496:523   */\n      add\n        /* \"#utility.yul\":492:530   */\n      add\n        /* \"#utility.yul\":489:536   */\n      gt\n        /* \"#utility.yul\":486:553   */\n      iszero\n      tag_102\n      jumpi\n        /* \"#utility.yul\":549:550   */\n      0x00\n        /* \"#utility.yul\":546:547   */\n      dup1\n        /* \"#utility.yul\":539:551   */\n      revert\n        /* \"#utility.yul\":486:553   */\n    tag_102:\n        /* \"#utility.yul\":192:559   */\n      swap3\n      pop\n      swap3\n      swap1\n      pop\n      jump\t// out\n        /* \"#utility.yul\":564:1411   */\n    tag_6:\n        /* \"#utility.yul\":695:701   */\n      0x00\n        /* \"#utility.yul\":703:709   */\n      dup1\n        /* \"#utility.yul\":711:717   */\n      0x00\n        /* \"#utility.yul\":719:725   */\n      dup1\n        /* \"#utility.yul\":727:733   */\n      0x00\n        /* \"#utility.yul\":780:782   */\n      0x60\n        /* \"#utility.yul\":768:777   */\n      dup7\n        /* \"#utility.yul\":759:766   */\n      dup9\n        /* \"#utility.yul\":755:778   */\n      sub\n        /* \"#utility.yul\":751:783   */\n      slt\n        /* \"#utility.yul\":748:800   */\n      iszero\n      tag_104\n      jumpi\n        /* \"#utility.yul\":796:797   */\n      0x00\n        /* \"#utility.yul\":793:794   */\n      dup1\n        /* \"#utility.yul\":786:798   */\n      revert\n        /* \"#utility.yul\":748:800   */\n    tag_104:\n        /* \"#utility.yul\":819:848   */\n      tag_105\n        /* \"#utility.yul\":838:847   */\n      dup7\n        /* \"#utility.yul\":819:848   */\n      tag_93\n      jump\t// in\n    tag_105:\n        /* \"#utility.yul\":809:848   */\n      swap5\n      pop\n        /* \"#utility.yul\":899:901   */\n      0x20\n        /* \"#utility.yul\":888:897   */\n      dup7\n        /* \"#utility.yul\":884:902   */\n      add\n        /* \"#utility.yul\":871:903   */\n      calldataload\n        /* \"#utility.yul\":922:940   */\n      0xffffffffffffffff\n        /* \"#utility.yul\":963:965   */\n      dup1\n        /* \"#utility.yul\":955:961   */\n      dup3\n        /* \"#utility.yul\":952:966   */\n      gt\n        /* \"#utility.yul\":949:983   */\n      iszero\n      tag_106\n      jumpi\n        /* \"#utility.yul\":979:980   */\n      0x00\n        /* \"#utility.yul\":976:977   */\n      dup1\n        /* \"#utility.yul\":969:981   */\n      revert\n        /* \"#utility.yul\":949:983   */\n    tag_106:\n        /* \"#utility.yul\":1018:1088   */\n      tag_107\n        /* \"#utility.yul\":1080:1087   */\n      dup10\n        /* \"#utility.yul\":1071:1077   */\n      dup4\n        /* \"#utility.yul\":1060:1069   */\n      dup11\n        /* \"#utility.yul\":1056:1078   */\n      add\n        /* \"#utility.yul\":1018:1088   */\n      tag_94\n      jump\t// in\n    tag_107:\n        /* \"#utility.yul\":1107:1115   */\n      swap1\n      swap7\n      pop\n        /* \"#utility.yul\":992:1088   */\n      swap5\n      pop\n        /* \"#utility.yul\":1195:1197   */\n      0x40\n        /* \"#utility.yul\":1180:1198   */\n      dup9\n      add\n        /* \"#utility.yul\":1167:1199   */\n      calldataload\n      swap2\n      pop\n        /* \"#utility.yul\":1211:1227   */\n      dup1\n      dup3\n      gt\n        /* \"#utility.yul\":1208:1244   */\n      iszero\n      tag_108\n      jumpi\n        /* \"#utility.yul\":1240:1241   */\n      0x00\n        /* \"#utility.yul\":1237:1238   */\n      dup1\n        /* \"#utility.yul\":1230:1242   */\n      revert\n        /* \"#utility.yul\":1208:1244   */\n    tag_108:\n      pop\n        /* \"#utility.yul\":1279:1351   */\n      tag_109\n        /* \"#utility.yul\":1343:1350   */\n      dup9\n        /* \"#utility.yul\":1332:1340   */\n      dup3\n        /* \"#utility.yul\":1321:1330   */\n      dup10\n        /* \"#utility.yul\":1317:1341   */\n      add\n        /* \"#utility.yul\":1279:1351   */\n      tag_94\n      jump\t// in\n    tag_109:\n        /* \"#utility.yul\":564:1411   */\n      swap7\n      swap10\n      swap6\n      swap9\n      pop\n      swap4\n      swap7\n      pop\n        /* \"#utility.yul\":1370:1378   */\n      swap3\n      swap5\n        /* \"#utility.yul\":1253:1351   */\n      swap4\n        /* \"#utility.yul\":564:1411   */\n      swap3\n      pop\n      pop\n      pop\n      jump\t// out\n        /* \"#utility.yul\":1416:1543   */\n    tag_95:\n        /* \"#utility.yul\":1477:1487   */\n      0x4e487b71\n        /* \"#utility.yul\":1472:1475   */\n      0xe0\n        /* \"#utility.yul\":1468:1488   */\n      shl\n        /* \"#utility.yul\":1465:1466   */\n      0x00\n        /* \"#utility.yul\":1458:1489   */\n      mstore\n        /* \"#utility.yul\":1508:1512   */\n      0x11\n        /* \"#utility.yul\":1505:1506   */\n      0x04\n        /* \"#utility.yul\":1498:1513   */\n      mstore\n        /* \"#utility.yul\":1532:1536   */\n      0x24\n        /* \"#utility.yul\":1529:1530   */\n      0x00\n        /* \"#utility.yul\":1522:1537   */\n      revert\n        /* \"#utility.yul\":1548:1676   */\n    tag_13:\n        /* \"#utility.yul\":1615:1624   */\n      dup2\n      dup2\n      sub\n        /* \"#utility.yul\":1636:1647   */\n      dup2\n      dup2\n      gt\n        /* \"#utility.yul\":1633:1670   */\n      iszero\n      tag_69\n      jumpi\n        /* \"#utility.yul\":1650:1668   */\n      tag_69\n      tag_95\n      jump\t// in\n        /* \"#utility.yul\":1681:1808   */\n    tag_16:\n        /* \"#utility.yul\":1742:1752   */\n      0x4e487b71\n        /* \"#utility.yul\":1737:1740   */\n      0xe0\n        /* \"#utility.yul\":1733:1753   */\n      shl\n        /* \"#utility.yul\":1730:1731   */\n      0x00\n        /* \"#utility.yul\":1723:1754   */\n      mstore\n        /* \"#utility.yul\":1773:1777   */\n      0x32\n        /* \"#utility.yul\":1770:1771   */\n      0x04\n        /* \"#utility.yul\":1763:1778   */\n      mstore\n        /* \"#utility.yul\":1797:1801   */\n      0x24\n        /* \"#utility.yul\":1794:1795   */\n      0x00\n        /* \"#utility.yul\":1787:1802   */\n      revert\n        /* \"#utility.yul\":1813:1938   */\n    tag_18:\n        /* \"#utility.yul\":1878:1887   */\n      dup1\n      dup3\n      add\n        /* \"#utility.yul\":1899:1909   */\n      dup1\n      dup3\n      gt\n        /* \"#utility.yul\":1896:1932   */\n      iszero\n      tag_69\n      jumpi\n        /* \"#utility.yul\":1912:1930   */\n      tag_69\n      tag_95\n      jump\t// in\n        /* \"#utility.yul\":1943:2078   */\n    tag_20:\n        /* \"#utility.yul\":1982:1985   */\n      0x00\n        /* \"#utility.yul\":2003:2020   */\n      0x01\n      dup3\n      add\n        /* \"#utility.yul\":2000:2043   */\n      tag_120\n      jumpi\n        /* \"#utility.yul\":2023:2041   */\n      tag_120\n      tag_95\n      jump\t// in\n    tag_120:\n      pop\n        /* \"#utility.yul\":2070:2071   */\n      0x01\n        /* \"#utility.yul\":2059:2072   */\n      add\n      swap1\n        /* \"#utility.yul\":1943:2078   */\n      jump\t// out\n        /* \"#utility.yul\":2432:2618   */\n    tag_42:\n        /* \"#utility.yul\":2491:2497   */\n      0x00\n        /* \"#utility.yul\":2544:2546   */\n      0x20\n        /* \"#utility.yul\":2532:2541   */\n      dup3\n        /* \"#utility.yul\":2523:2530   */\n      dup5\n        /* \"#utility.yul\":2519:2542   */\n      sub\n        /* \"#utility.yul\":2515:2547   */\n      slt\n        /* \"#utility.yul\":2512:2564   */\n      iszero\n      tag_123\n      jumpi\n        /* \"#utility.yul\":2560:2561   */\n      0x00\n        /* \"#utility.yul\":2557:2558   */\n      dup1\n        /* \"#utility.yul\":2550:2562   */\n      revert\n        /* \"#utility.yul\":2512:2564   */\n    tag_123:\n        /* \"#utility.yul\":2583:2612   */\n      tag_70\n        /* \"#utility.yul\":2602:2611   */\n      dup3\n        /* \"#utility.yul\":2583:2612   */\n      tag_93\n      jump\t// in\n        /* \"#utility.yul\":3282:3559   */\n    tag_65:\n        /* \"#utility.yul\":3349:3355   */\n      0x00\n        /* \"#utility.yul\":3402:3404   */\n      0x20\n        /* \"#utility.yul\":3390:3399   */\n      dup3\n        /* \"#utility.yul\":3381:3388   */\n      dup5\n        /* \"#utility.yul\":3377:3400   */\n      sub\n        /* \"#utility.yul\":3373:3405   */\n      slt\n        /* \"#utility.yul\":3370:3422   */\n      iszero\n      tag_128\n      jumpi\n        /* \"#utility.yul\":3418:3419   */\n      0x00\n        /* \"#utility.yul\":3415:3416   */\n      dup1\n        /* \"#utility.yul\":3408:3420   */\n      revert\n        /* \"#utility.yul\":3370:3422   */\n    tag_128:\n        /* \"#utility.yul\":3450:3459   */\n      dup2\n        /* \"#utility.yul\":3444:3460   */\n      mload\n        /* \"#utility.yul\":3503:3508   */\n      dup1\n        /* \"#utility.yul\":3496:3509   */\n      iszero\n        /* \"#utility.yul\":3489:3510   */\n      iszero\n        /* \"#utility.yul\":3482:3487   */\n      dup2\n        /* \"#utility.yul\":3479:3511   */\n      eq\n        /* \"#utility.yul\":3469:3529   */\n      tag_72\n      jumpi\n        /* \"#utility.yul\":3525:3526   */\n      0x00\n        /* \"#utility.yul\":3522:3523   */\n      dup1\n        /* \"#utility.yul\":3515:3527   */\n      revert\n        /* \"#utility.yul\":3772:4184   */\n    tag_76:\n        /* \"#utility.yul\":3901:3904   */\n      0x00\n        /* \"#utility.yul\":3939:3945   */\n      dup3\n        /* \"#utility.yul\":3933:3946   */\n      mload\n        /* \"#utility.yul\":3964:3965   */\n      0x00\n        /* \"#utility.yul\":3974:4103   */\n    tag_132:\n        /* \"#utility.yul\":3988:3994   */\n      dup2\n        /* \"#utility.yul\":3985:3986   */\n      dup2\n        /* \"#utility.yul\":3982:3995   */\n      lt\n        /* \"#utility.yul\":3974:4103   */\n      iszero\n      tag_134\n      jumpi\n        /* \"#utility.yul\":4086:4090   */\n      0x20\n        /* \"#utility.yul\":4070:4084   */\n      dup2\n      dup7\n      add\n        /* \"#utility.yul\":4066:4091   */\n      dup2\n      add\n        /* \"#utility.yul\":4060:4092   */\n      mload\n        /* \"#utility.yul\":4047:4058   */\n      dup6\n      dup4\n      add\n        /* \"#utility.yul\":4040:4093   */\n      mstore\n        /* \"#utility.yul\":4003:4015   */\n      add\n        /* \"#utility.yul\":3974:4103   */\n      jump(tag_132)\n    tag_134:\n      pop\n        /* \"#utility.yul\":4158:4159   */\n      0x00\n        /* \"#utility.yul\":4122:4138   */\n      swap3\n      add\n        /* \"#utility.yul\":4147:4160   */\n      swap2\n      dup3\n      mstore\n      pop\n        /* \"#utility.yul\":4122:4138   */\n      swap2\n        /* \"#utility.yul\":3772:4184   */\n      swap1\n      pop\n      jump\t// out\n\n    auxdata: 0xa264697066735822122067737daa546cea1352f46765e9d2cb4fe24d47d2cac911bc92ae4e4686711c5664736f6c63430008140033\n}\n",
				"bytecode": {
					"linkReferences": {},
					"object": "608060405234801561000f575f80fd5b506106218061001d5f395ff3fe608060405234801561000f575f80fd5b5060043610610029575f3560e01c8063e83f967b1461002d575b5f80fd5b61004061003b3660046104a6565b610042565b005b5f8060015b83811161009057848461005b600184610535565b81811061006a5761006a610548565b905060200201358361007c919061055c565b9250806100888161056f565b915050610047565b506100a66001600160a01b038816333085610209565b60015b8581116101d9576100ba8284610535565b85856100c7600185610535565b8181106100d6576100d6610548565b9050602002013511156101275760405162461bcd60e51b8152602060048201526014602482015273496e73756666696369656e742042616c616e636560601b60448201526064015b60405180910390fd5b8484610134600184610535565b81811061014357610143610548565b9050602002013582610155919061055c565b91506101c78787610167600185610535565b81811061017657610176610548565b905060200201602081019061018b9190610587565b8686610198600186610535565b8181106101a7576101a7610548565b905060200201358a6001600160a01b03166102769092919063ffffffff16565b806101d18161056f565b9150506100a9565b506101e48183610535565b91508115610200576102006001600160a01b0388163384610276565b50505050505050565b6040516001600160a01b0384811660248301528381166044830152606482018390526102709186918216906323b872dd906084015b604051602081830303815290604052915060e01b6020820180516001600160e01b0383818316178352505050506102ac565b50505050565b6040516001600160a01b038381166024830152604482018390526102a791859182169063a9059cbb9060640161023e565b505050565b5f6102c06001600160a01b0384168361030d565b905080515f141580156102e45750808060200190518101906102e291906105a0565b155b156102a757604051635274afe760e01b81526001600160a01b038416600482015260240161011e565b606061031a83835f610323565b90505b92915050565b6060814710156103485760405163cd78605960e01b815230600482015260240161011e565b5f80856001600160a01b0316848660405161036391906105bf565b5f6040518083038185875af1925050503d805f811461039d576040519150601f19603f3d011682016040523d82523d5f602084013e6103a2565b606091505b50915091506103b28683836103be565b925050505b9392505050565b6060826103d3576103ce8261041a565b6103b7565b81511580156103ea57506001600160a01b0384163b155b1561041357604051639996b31560e01b81526001600160a01b038516600482015260240161011e565b50806103b7565b80511561042a5780518082602001fd5b604051630a12f52160e11b815260040160405180910390fd5b80356001600160a01b0381168114610459575f80fd5b919050565b5f8083601f84011261046e575f80fd5b50813567ffffffffffffffff811115610485575f80fd5b6020830191508360208260051b850101111561049f575f80fd5b9250929050565b5f805f805f606086880312156104ba575f80fd5b6104c386610443565b9450602086013567ffffffffffffffff808211156104df575f80fd5b6104eb89838a0161045e565b90965094506040880135915080821115610503575f80fd5b506105108882890161045e565b969995985093965092949392505050565b634e487b7160e01b5f52601160045260245ffd5b8181038181111561031d5761031d610521565b634e487b7160e01b5f52603260045260245ffd5b8082018082111561031d5761031d610521565b5f6001820161058057610580610521565b5060010190565b5f60208284031215610597575f80fd5b61031a82610443565b5f602082840312156105b0575f80fd5b815180151581146103b7575f80fd5b5f82515f5b818110156105de57602081860181015185830152016105c4565b505f92019182525091905056fea264697066735822122067737daa546cea1352f46765e9d2cb4fe24d47d2cac911bc92ae4e4686711c5664736f6c63430008140033",
					"opcodes": "PUSH1 0x80 PUSH1 0x40 MSTORE CALLVALUE DUP1 ISZERO PUSH2 0xF JUMPI PUSH0 DUP1 REVERT JUMPDEST POP PUSH2 0x621 DUP1 PUSH2 0x1D PUSH0 CODECOPY PUSH0 RETURN INVALID PUSH1 0x80 PUSH1 0x40 MSTORE CALLVALUE DUP1 ISZERO PUSH2 0xF JUMPI PUSH0 DUP1 REVERT JUMPDEST POP PUSH1 0x4 CALLDATASIZE LT PUSH2 0x29 JUMPI PUSH0 CALLDATALOAD PUSH1 0xE0 SHR DUP1 PUSH4 0xE83F967B EQ PUSH2 0x2D JUMPI JUMPDEST PUSH0 DUP1 REVERT JUMPDEST PUSH2 0x40 PUSH2 0x3B CALLDATASIZE PUSH1 0x4 PUSH2 0x4A6 JUMP JUMPDEST PUSH2 0x42 JUMP JUMPDEST STOP JUMPDEST PUSH0 DUP1 PUSH1 0x1 JUMPDEST DUP4 DUP2 GT PUSH2 0x90 JUMPI DUP5 DUP5 PUSH2 0x5B PUSH1 0x1 DUP5 PUSH2 0x535 JUMP JUMPDEST DUP2 DUP2 LT PUSH2 0x6A JUMPI PUSH2 0x6A PUSH2 0x548 JUMP JUMPDEST SWAP1 POP PUSH1 0x20 MUL ADD CALLDATALOAD DUP4 PUSH2 0x7C SWAP2 SWAP1 PUSH2 0x55C JUMP JUMPDEST SWAP3 POP DUP1 PUSH2 0x88 DUP2 PUSH2 0x56F JUMP JUMPDEST SWAP2 POP POP PUSH2 0x47 JUMP JUMPDEST POP PUSH2 0xA6 PUSH1 0x1 PUSH1 0x1 PUSH1 0xA0 SHL SUB DUP9 AND CALLER ADDRESS DUP6 PUSH2 0x209 JUMP JUMPDEST PUSH1 0x1 JUMPDEST DUP6 DUP2 GT PUSH2 0x1D9 JUMPI PUSH2 0xBA DUP3 DUP5 PUSH2 0x535 JUMP JUMPDEST DUP6 DUP6 PUSH2 0xC7 PUSH1 0x1 DUP6 PUSH2 0x535 JUMP JUMPDEST DUP2 DUP2 LT PUSH2 0xD6 JUMPI PUSH2 0xD6 PUSH2 0x548 JUMP JUMPDEST SWAP1 POP PUSH1 0x20 MUL ADD CALLDATALOAD GT ISZERO PUSH2 0x127 JUMPI PUSH1 0x40 MLOAD PUSH3 0x461BCD PUSH1 0xE5 SHL DUP2 MSTORE PUSH1 0x20 PUSH1 0x4 DUP3 ADD MSTORE PUSH1 0x14 PUSH1 0x24 DUP3 ADD MSTORE PUSH20 0x496E73756666696369656E742042616C616E6365 PUSH1 0x60 SHL PUSH1 0x44 DUP3 ADD MSTORE PUSH1 0x64 ADD JUMPDEST PUSH1 0x40 MLOAD DUP1 SWAP2 SUB SWAP1 REVERT JUMPDEST DUP5 DUP5 PUSH2 0x134 PUSH1 0x1 DUP5 PUSH2 0x535 JUMP JUMPDEST DUP2 DUP2 LT PUSH2 0x143 JUMPI PUSH2 0x143 PUSH2 0x548 JUMP JUMPDEST SWAP1 POP PUSH1 0x20 MUL ADD CALLDATALOAD DUP3 PUSH2 0x155 SWAP2 SWAP1 PUSH2 0x55C JUMP JUMPDEST SWAP2 POP PUSH2 0x1C7 DUP8 DUP8 PUSH2 0x167 PUSH1 0x1 DUP6 PUSH2 0x535 JUMP JUMPDEST DUP2 DUP2 LT PUSH2 0x176 JUMPI PUSH2 0x176 PUSH2 0x548 JUMP JUMPDEST SWAP1 POP PUSH1 0x20 MUL ADD PUSH1 0x20 DUP2 ADD SWAP1 PUSH2 0x18B SWAP2 SWAP1 PUSH2 0x587 JUMP JUMPDEST DUP7 DUP7 PUSH2 0x198 PUSH1 0x1 DUP7 PUSH2 0x535 JUMP JUMPDEST DUP2 DUP2 LT PUSH2 0x1A7 JUMPI PUSH2 0x1A7 PUSH2 0x548 JUMP JUMPDEST SWAP1 POP PUSH1 0x20 MUL ADD CALLDATALOAD DUP11 PUSH1 0x1 PUSH1 0x1 PUSH1 0xA0 SHL SUB AND PUSH2 0x276 SWAP1 SWAP3 SWAP2 SWAP1 PUSH4 0xFFFFFFFF AND JUMP JUMPDEST DUP1 PUSH2 0x1D1 DUP2 PUSH2 0x56F JUMP JUMPDEST SWAP2 POP POP PUSH2 0xA9 JUMP JUMPDEST POP PUSH2 0x1E4 DUP2 DUP4 PUSH2 0x535 JUMP JUMPDEST SWAP2 POP DUP2 ISZERO PUSH2 0x200 JUMPI PUSH2 0x200 PUSH1 0x1 PUSH1 0x1 PUSH1 0xA0 SHL SUB DUP9 AND CALLER DUP5 PUSH2 0x276 JUMP JUMPDEST POP POP POP POP POP POP POP JUMP JUMPDEST PUSH1 0x40 MLOAD PUSH1 0x1 PUSH1 0x1 PUSH1 0xA0 SHL SUB DUP5 DUP2 AND PUSH1 0x24 DUP4 ADD MSTORE DUP4 DUP2 AND PUSH1 0x44 DUP4 ADD MSTORE PUSH1 0x64 DUP3 ADD DUP4 SWAP1 MSTORE PUSH2 0x270 SWAP2 DUP7 SWAP2 DUP3 AND SWAP1 PUSH4 0x23B872DD SWAP1 PUSH1 0x84 ADD JUMPDEST PUSH1 0x40 MLOAD PUSH1 0x20 DUP2 DUP4 SUB SUB DUP2 MSTORE SWAP1 PUSH1 0x40 MSTORE SWAP2 POP PUSH1 0xE0 SHL PUSH1 0x20 DUP3 ADD DUP1 MLOAD PUSH1 0x1 PUSH1 0x1 PUSH1 0xE0 SHL SUB DUP4 DUP2 DUP4 AND OR DUP4 MSTORE POP POP POP POP PUSH2 0x2AC JUMP JUMPDEST POP POP POP POP JUMP JUMPDEST PUSH1 0x40 MLOAD PUSH1 0x1 PUSH1 0x1 PUSH1 0xA0 SHL SUB DUP4 DUP2 AND PUSH1 0x24 DUP4 ADD MSTORE PUSH1 0x44 DUP3 ADD DUP4 SWAP1 MSTORE PUSH2 0x2A7 SWAP2 DUP6 SWAP2 DUP3 AND SWAP1 PUSH4 0xA9059CBB SWAP1 PUSH1 0x64 ADD PUSH2 0x23E JUMP JUMPDEST POP POP POP JUMP JUMPDEST PUSH0 PUSH2 0x2C0 PUSH1 0x1 PUSH1 0x1 PUSH1 0xA0 SHL SUB DUP5 AND DUP4 PUSH2 0x30D JUMP JUMPDEST SWAP1 POP DUP1 MLOAD PUSH0 EQ ISZERO DUP1 ISZERO PUSH2 0x2E4 JUMPI POP DUP1 DUP1 PUSH1 0x20 ADD SWAP1 MLOAD DUP2 ADD SWAP1 PUSH2 0x2E2 SWAP2 SWAP1 PUSH2 0x5A0 JUMP JUMPDEST ISZERO JUMPDEST ISZERO PUSH2 0x2A7 JUMPI PUSH1 0x40 MLOAD PUSH4 0x5274AFE7 PUSH1 0xE0 SHL DUP2 MSTORE PUSH1 0x1 PUSH1 0x1 PUSH1 0xA0 SHL SUB DUP5 AND PUSH1 0x4 DUP3 ADD MSTORE PUSH1 0x24 ADD PUSH2 0x11E JUMP JUMPDEST PUSH1 0x60 PUSH2 0x31A DUP4 DUP4 PUSH0 PUSH2 0x323 JUMP JUMPDEST SWAP1 POP JUMPDEST SWAP3 SWAP2 POP POP JUMP JUMPDEST PUSH1 0x60 DUP2 SELFBALANCE LT ISZERO PUSH2 0x348 JUMPI PUSH1 0x40 MLOAD PUSH4 0xCD786059 PUSH1 0xE0 SHL DUP2 MSTORE ADDRESS PUSH1 0x4 DUP3 ADD MSTORE PUSH1 0x24 ADD PUSH2 0x11E JUMP JUMPDEST PUSH0 DUP1 DUP6 PUSH1 0x1 PUSH1 0x1 PUSH1 0xA0 SHL SUB AND DUP5 DUP7 PUSH1 0x40 MLOAD PUSH2 0x363 SWAP2 SWAP1 PUSH2 0x5BF JUMP JUMPDEST PUSH0 PUSH1 0x40 MLOAD DUP1 DUP4 SUB DUP2 DUP6 DUP8 GAS CALL SWAP3 POP POP POP RETURNDATASIZE DUP1 PUSH0 DUP2 EQ PUSH2 0x39D JUMPI PUSH1 0x40 MLOAD SWAP2 POP PUSH1 0x1F NOT PUSH1 0x3F RETURNDATASIZE ADD AND DUP3 ADD PUSH1 0x40 MSTORE RETURNDATASIZE DUP3 MSTORE RETURNDATASIZE PUSH0 PUSH1 0x20 DUP5 ADD RETURNDATACOPY PUSH2 0x3A2 JUMP JUMPDEST PUSH1 0x60 SWAP2 POP JUMPDEST POP SWAP2 POP SWAP2 POP PUSH2 0x3B2 DUP7 DUP4 DUP4 PUSH2 0x3BE JUMP JUMPDEST SWAP3 POP POP POP JUMPDEST SWAP4 SWAP3 POP POP POP JUMP JUMPDEST PUSH1 0x60 DUP3 PUSH2 0x3D3 JUMPI PUSH2 0x3CE DUP3 PUSH2 0x41A JUMP JUMPDEST PUSH2 0x3B7 JUMP JUMPDEST DUP2 MLOAD ISZERO DUP1 ISZERO PUSH2 0x3EA JUMPI POP PUSH1 0x1 PUSH1 0x1 PUSH1 0xA0 SHL SUB DUP5 AND EXTCODESIZE ISZERO JUMPDEST ISZERO PUSH2 0x413 JUMPI PUSH1 0x40 MLOAD PUSH4 0x9996B315 PUSH1 0xE0 SHL DUP2 MSTORE PUSH1 0x1 PUSH1 0x1 PUSH1 0xA0 SHL SUB DUP6 AND PUSH1 0x4 DUP3 ADD MSTORE PUSH1 0x24 ADD PUSH2 0x11E JUMP JUMPDEST POP DUP1 PUSH2 0x3B7 JUMP JUMPDEST DUP1 MLOAD ISZERO PUSH2 0x42A JUMPI DUP1 MLOAD DUP1 DUP3 PUSH1 0x20 ADD REVERT JUMPDEST PUSH1 0x40 MLOAD PUSH4 0xA12F521 PUSH1 0xE1 SHL DUP2 MSTORE PUSH1 0x4 ADD PUSH1 0x40 MLOAD DUP1 SWAP2 SUB SWAP1 REVERT JUMPDEST DUP1 CALLDATALOAD PUSH1 0x1 PUSH1 0x1 PUSH1 0xA0 SHL SUB DUP2 AND DUP2 EQ PUSH2 0x459 JUMPI PUSH0 DUP1 REVERT JUMPDEST SWAP2 SWAP1 POP JUMP JUMPDEST PUSH0 DUP1 DUP4 PUSH1 0x1F DUP5 ADD SLT PUSH2 0x46E JUMPI PUSH0 DUP1 REVERT JUMPDEST POP DUP2 CALLDATALOAD PUSH8 0xFFFFFFFFFFFFFFFF DUP2 GT ISZERO PUSH2 0x485 JUMPI PUSH0 DUP1 REVERT JUMPDEST PUSH1 0x20 DUP4 ADD SWAP2 POP DUP4 PUSH1 0x20 DUP3 PUSH1 0x5 SHL DUP6 ADD ADD GT ISZERO PUSH2 0x49F JUMPI PUSH0 DUP1 REVERT JUMPDEST SWAP3 POP SWAP3 SWAP1 POP JUMP JUMPDEST PUSH0 DUP1 PUSH0 DUP1 PUSH0 PUSH1 0x60 DUP7 DUP9 SUB SLT ISZERO PUSH2 0x4BA JUMPI PUSH0 DUP1 REVERT JUMPDEST PUSH2 0x4C3 DUP7 PUSH2 0x443 JUMP JUMPDEST SWAP5 POP PUSH1 0x20 DUP7 ADD CALLDATALOAD PUSH8 0xFFFFFFFFFFFFFFFF DUP1 DUP3 GT ISZERO PUSH2 0x4DF JUMPI PUSH0 DUP1 REVERT JUMPDEST PUSH2 0x4EB DUP10 DUP4 DUP11 ADD PUSH2 0x45E JUMP JUMPDEST SWAP1 SWAP7 POP SWAP5 POP PUSH1 0x40 DUP9 ADD CALLDATALOAD SWAP2 POP DUP1 DUP3 GT ISZERO PUSH2 0x503 JUMPI PUSH0 DUP1 REVERT JUMPDEST POP PUSH2 0x510 DUP9 DUP3 DUP10 ADD PUSH2 0x45E JUMP JUMPDEST SWAP7 SWAP10 SWAP6 SWAP9 POP SWAP4 SWAP7 POP SWAP3 SWAP5 SWAP4 SWAP3 POP POP POP JUMP JUMPDEST PUSH4 0x4E487B71 PUSH1 0xE0 SHL PUSH0 MSTORE PUSH1 0x11 PUSH1 0x4 MSTORE PUSH1 0x24 PUSH0 REVERT JUMPDEST DUP2 DUP2 SUB DUP2 DUP2 GT ISZERO PUSH2 0x31D JUMPI PUSH2 0x31D PUSH2 0x521 JUMP JUMPDEST PUSH4 0x4E487B71 PUSH1 0xE0 SHL PUSH0 MSTORE PUSH1 0x32 PUSH1 0x4 MSTORE PUSH1 0x24 PUSH0 REVERT JUMPDEST DUP1 DUP3 ADD DUP1 DUP3 GT ISZERO PUSH2 0x31D JUMPI PUSH2 0x31D PUSH2 0x521 JUMP JUMPDEST PUSH0 PUSH1 0x1 DUP3 ADD PUSH2 0x580 JUMPI PUSH2 0x580 PUSH2 0x521 JUMP JUMPDEST POP PUSH1 0x1 ADD SWAP1 JUMP JUMPDEST PUSH0 PUSH1 0x20 DUP3 DUP5 SUB SLT ISZERO PUSH2 0x597 JUMPI PUSH0 DUP1 REVERT JUMPDEST PUSH2 0x31A DUP3 PUSH2 0x443 JUMP JUMPDEST PUSH0 PUSH1 0x20 DUP3 DUP5 SUB SLT ISZERO PUSH2 0x5B0 JUMPI PUSH0 DUP1 REVERT JUMPDEST DUP2 MLOAD DUP1 ISZERO ISZERO DUP2 EQ PUSH2 0x3B7 JUMPI PUSH0 DUP1 REVERT JUMPDEST PUSH0 DUP3 MLOAD PUSH0 JUMPDEST DUP2 DUP2 LT ISZERO PUSH2 0x5DE JUMPI PUSH1 0x20 DUP2 DUP7 ADD DUP2 ADD MLOAD DUP6 DUP4 ADD MSTORE ADD PUSH2 0x5C4 JUMP JUMPDEST POP PUSH0 SWAP3 ADD SWAP2 DUP3 MSTORE POP SWAP2 SWAP1 POP JUMP INVALID LOG2 PUSH5 0x6970667358 0x22 SLT KECCAK256 PUSH8 0x737DAA546CEA1352 DELEGATECALL PUSH8 0x65E9D2CB4FE24D47 0xD2 0xCA 0xC9 GT 0xBC SWAP3 0xAE 0x4E CHAINID DUP7 PUSH18 0x1C5664736F6C634300081400330000000000 "
				},
				"gasEstimates": {
					"creation": {
						"codeDepositCost": "313800",
						"executionCost": "353",
						"totalCost": "314153"
					},
					"external": {
						"sendTokens(address,address[],uint256[])": "infinite"
					}
				},
				"methodIdentifiers": {
					"sendTokens(address,address[],uint256[])": "e83f967b"
				}
			},
			"storageLayout": {
				"storage": [],
				"types": null
			},
			"userdoc": {
				"kind": "user",
				"methods": {},
				"version": 1
			}
		}
	}
}