{
	"data": {
		"bytecode": {
			"linkReferences": {},
			"object": "608060405234801561000f575f80fd5b506106218061001d5f395ff3fe608060405234801561000f575f80fd5b5060043610610029575f3560e01c8063e83f967b1461002d575b5f80fd5b61004061003b3660046104a6565b610042565b005b5f8060015b83811161009057848461005b600184610535565b81811061006a5761006a610548565b905060200201358361007c919061055c565b9250806100888161056f565b915050610047565b506100a66001600160a01b038816333085610209565b60015b8581116101d9576100ba8284610535565b85856100c7600185610535565b8181106100d6576100d6610548565b9050602002013511156101275760405162461bcd60e51b8152602060048201526014602482015273496e73756666696369656e742042616c616e636560601b60448201526064015b60405180910390fd5b8484610134600184610535565b81811061014357610143610548565b9050602002013582610155919061055c565b91506101c78787610167600185610535565b81811061017657610176610548565b905060200201602081019061018b9190610587565b8686610198600186610535565b8181106101a7576101a7610548565b905060200201358a6001600160a01b03166102769092919063ffffffff16565b806101d18161056f565b9150506100a9565b506101e48183610535565b91508115610200576102006001600160a01b0388163384610276565b50505050505050565b6040516001600160a01b0384811660248301528381166044830152606482018390526102709186918216906323b872dd906084015b604051602081830303815290604052915060e01b6020820180516001600160e01b0383818316178352505050506102ac565b50505050565b6040516001600160a01b038381166024830152604482018390526102a791859182169063a9059cbb9060640161023e565b505050565b5f6102c06001600160a01b0384168361030d565b905080515f141580156102e45750808060200190518101906102e291906105a0565b155b156102a757604051635274afe760e01b81526001600160a01b038416600482015260240161011e565b606061031a83835f610323565b90505b92915050565b6060814710156103485760405163cd78605960e01b815230600482015260240161011e565b5f80856001600160a01b0316848660405161036391906105bf565b5f6040518083038185875af1925050503d805f811461039d576040519150601f19603f3d011682016040523d82523d5f602084013e6103a2565b606091505b50915091506103b28683836103be565b925050505b9392505050565b6060826103d3576103ce8261041a565b6103b7565b81511580156103ea57506001600160a01b0384163b155b1561041357604051639996b31560e01b81526001600160a01b038516600482015260240161011e565b50806103b7565b80511561042a5780518082602001fd5b604051630a12f52160e11b815260040160405180910390fd5b80356001600160a01b0381168114610459575f80fd5b919050565b5f8083601f84011261046e575f80fd5b50813567ffffffffffffffff811115610485575f80fd5b6020830191508360208260051b850101111561049f575f80fd5b9250929050565b5f805f805f606086880312156104ba575f80fd5b6104c386610443565b9450602086013567ffffffffffffffff808211156104df575f80fd5b6104eb89838a0161045e565b90965094506040880135915080821115610503575f80fd5b506105108882890161045e565b969995985093965092949392505050565b634e487b7160e01b5f52601160045260245ffd5b8181038181111561031d5761031d610521565b634e487b7160e01b5f52603260045260245ffd5b8082018082111561031d5761031d610521565b5f6001820161058057610580610521565b5060010190565b5f60208284031215610597575f80fd5b61031a82610443565b5f602082840312156105b0575f80fd5b815180151581146103b7575f80fd5b5f82515f5b818110156105de57602081860181015185830152016105c4565b505f92019182525091905056fea264697066735822122067737daa546cea1352f46765e9d2cb4fe24d47d2cac911bc92ae4e4686711c5664736f6c63430008140033",
			"opcodes": "PUSH1 0x80 PUSH1 0x40 MSTORE CALLVALUE DUP1 ISZERO PUSH2 0xF JUMPI PUSH0 DUP1 REVERT JUMPDEST POP PUSH2 0x621 DUP1 PUSH2 0x1D PUSH0 CODECOPY PUSH0 RETURN INVALID PUSH1 0x80 PUSH1 0x40 MSTORE CALLVALUE DUP1 ISZERO PUSH2 0xF JUMPI PUSH0 DUP1 REVERT JUMPDEST POP PUSH1 0x4 CALLDATASIZE LT PUSH2 0x29 JUMPI PUSH0 CALLDATALOAD PUSH1 0xE0 SHR DUP1 PUSH4 0xE83F967B EQ PUSH2 0x2D JUMPI JUMPDEST PUSH0 DUP1 REVERT JUMPDEST PUSH2 0x40 PUSH2 0x3B CALLDATASIZE PUSH1 0x4 PUSH2 0x4A6 JUMP JUMPDEST PUSH2 0x42 JUMP JUMPDEST STOP JUMPDEST PUSH0 DUP1 PUSH1 0x1 JUMPDEST DUP4 DUP2 GT PUSH2 0x90 JUMPI DUP5 DUP5 PUSH2 0x5B PUSH1 0x1 DUP5 PUSH2 0x535 JUMP JUMPDEST DUP2 DUP2 LT PUSH2 0x6A JUMPI PUSH2 0x6A PUSH2 0x548 JUMP JUMPDEST SWAP1 POP PUSH1 0x20 MUL ADD CALLDATALOAD DUP4 PUSH2 0x7C SWAP2 SWAP1 PUSH2 0x55C JUMP JUMPDEST SWAP3 POP DUP1 PUSH2 0x88 DUP2 PUSH2 0x56F JUMP JUMPDEST SWAP2 POP POP PUSH2 0x47 JUMP JUMPDEST POP PUSH2 0xA6 PUSH1 0x1 PUSH1 0x1 PUSH1 0xA0 SHL SUB DUP9 AND CALLER ADDRESS DUP6 PUSH2 0x209 JUMP JUMPDEST PUSH1 0x1 JUMPDEST DUP6 DUP2 GT PUSH2 0x1D9 JUMPI PUSH2 0xBA DUP3 DUP5 PUSH2 0x535 JUMP JUMPDEST DUP6 DUP6 PUSH2 0xC7 PUSH1 0x1 DUP6 PUSH2 0x535 JUMP JUMPDEST DUP2 DUP2 LT PUSH2 0xD6 JUMPI PUSH2 0xD6 PUSH2 0x548 JUMP JUMPDEST SWAP1 POP PUSH1 0x20 MUL ADD CALLDATALOAD GT ISZERO PUSH2 0x127 JUMPI PUSH1 0x40 MLOAD PUSH3 0x461BCD PUSH1 0xE5 SHL DUP2 MSTORE PUSH1 0x20 PUSH1 0x4 DUP3 ADD MSTORE PUSH1 0x14 PUSH1 0x24 DUP3 ADD MSTORE PUSH20 0x496E73756666696369656E742042616C616E6365 PUSH1 0x60 SHL PUSH1 0x44 DUP3 ADD MSTORE PUSH1 0x64 ADD JUMPDEST PUSH1 0x40 MLOAD DUP1 SWAP2 SUB SWAP1 REVERT JUMPDEST DUP5 DUP5 PUSH2 0x134 PUSH1 0x1 DUP5 PUSH2 0x535 JUMP JUMPDEST DUP2 DUP2 LT PUSH2 0x143 JUMPI PUSH2 0x143 PUSH2 0x548 JUMP JUMPDEST SWAP1 POP PUSH1 0x20 MUL ADD CALLDATALOAD DUP3 PUSH2 0x155 SWAP2 SWAP1 PUSH2 0x55C JUMP JUMPDEST SWAP2 POP PUSH2 0x1C7 DUP8 DUP8 PUSH2 0x167 PUSH1 0x1 DUP6 PUSH2 0x535 JUMP JUMPDEST DUP2 DUP2 LT PUSH2 0x176 JUMPI PUSH2 0x176 PUSH2 0x548 JUMP JUMPDEST SWAP1 POP PUSH1 0x20 MUL ADD PUSH1 0x20 DUP2 ADD SWAP1 PUSH2 0x18B SWAP2 SWAP1 PUSH2 0x587 JUMP JUMPDEST DUP7 DUP7 PUSH2 0x198 PUSH1 0x1 DUP7 PUSH2 0x535 JUMP JUMPDEST DUP2 DUP2 LT PUSH2 0x1A7 JUMPI PUSH2 0x1A7 PUSH2 0x548 JUMP JUMPDEST SWAP1 POP PUSH1 0x20 MUL ADD CALLDATALOAD DUP11 PUSH1 0x1 PUSH1 0x1 PUSH1 0xA0 SHL SUB AND PUSH2 0x276 SWAP1 SWAP3 SWAP2 SWAP1 PUSH4 0xFFFFFFFF AND JUMP JUMPDEST DUP1 PUSH2 0x1D1 DUP2 PUSH2 0x56F JUMP JUMPDEST SWAP2 POP POP PUSH2 0xA9 JUMP JUMPDEST POP PUSH2 0x1E4 DUP2 DUP4 PUSH2 0x535 JUMP JUMPDEST SWAP2 POP DUP2 ISZERO PUSH2 0x200 JUMPI PUSH2 0x200 PUSH1 0x1 PUSH1 0x1 PUSH1 0xA0 SHL SUB DUP9 AND CALLER DUP5 PUSH2 0x276 JUMP JUMPDEST POP POP POP POP POP POP POP JUMP JUMPDEST PUSH1 0x40 MLOAD PUSH1 0x1 PUSH1 0x1 PUSH1 0xA0 SHL SUB DUP5 DUP2 AND PUSH1 0x24 DUP4 ADD MSTORE DUP4 DUP2 AND PUSH1 0x44 DUP4 ADD MSTORE PUSH1 0x64 DUP3 ADD DUP4 SWAP1 MSTORE PUSH2 0x270 SWAP2 DUP7 SWAP2 DUP3 AND SWAP1 PUSH4 0x23B872DD SWAP1 PUSH1 0x84 ADD JUMPDEST PUSH1 0x40 MLOAD PUSH1 0x20 DUP2 DUP4 SUB SUB DUP2 MSTORE SWAP1 PUSH1 0x40 MSTORE SWAP2 POP PUSH1 0xE0 SHL PUSH1 0x20 DUP3 ADD DUP1 MLOAD PUSH1 0x1 PUSH1 0x1 PUSH1 0xE0 SHL SUB DUP4 DUP2 DUP4 AND OR DUP4 MSTORE POP POP POP POP PUSH2 0x2AC JUMP JUMPDEST POP POP POP POP JUMP JUMPDEST PUSH1 0x40 MLOAD PUSH1 0x1 PUSH1 0x1 PUSH1 0xA0 SHL SUB DUP4 DUP2 AND PUSH1 0x24 DUP4 ADD MSTORE PUSH1 0x44 DUP3 ADD DUP4 SWAP1 MSTORE PUSH2 0x2A7 SWAP2 DUP6 SWAP2 DUP3 AND SWAP1 PUSH4 0xA9059CBB SWAP1 PUSH1 0x64 ADD PUSH2 0x23E JUMP JUMPDEST POP POP POP JUMP JUMPDEST PUSH0 PUSH2 0x2C0 PUSH1 0x1 PUSH1 0x1 PUSH1 0xA0 SHL SUB DUP5 AND DUP4 PUSH2 0x30D JUMP JUMPDEST SWAP1 POP DUP1 MLOAD PUSH0 EQ ISZERO DUP1 ISZERO PUSH2 0x2E4 JUMPI POP DUP1 DUP1 PUSH1 0x20 ADD SWAP1 MLOAD DUP2 ADD SWAP1 PUSH2 0x2E2 SWAP2 SWAP1 PUSH2 0x5A0 JUMP JUMPDEST ISZERO JUMPDEST ISZERO PUSH2 0x2A7 JUMPI PUSH1 0x40 MLOAD PUSH4 0x5274AFE7 PUSH1 0xE0 SHL DUP2 MSTORE PUSH1 0x1 PUSH1 0x1 PUSH1 0xA0 SHL SUB DUP5 AND PUSH1 0x4 DUP3 ADD MSTORE PUSH1 0x24 ADD PUSH2 0x11E JUMP JUMPDEST PUSH1 0x60 PUSH2 0x31A DUP4 DUP4 PUSH0 PUSH2 0x323 JUMP JUMPDEST SWAP1 POP JUMPDEST SWAP3 SWAP2 POP POP JUMP JUMPDEST PUSH1 0x60 DUP2 SELFBALANCE LT ISZERO PUSH2 0x348 JUMPI PUSH1 0x40 MLOAD PUSH4 0xCD786059 PUSH1 0xE0 SHL DUP2 MSTORE ADDRESS PUSH1 0x4 DUP3 ADD MSTORE PUSH1 0x24 ADD PUSH2 0x11E JUMP JUMPDEST PUSH0 DUP1 DUP6 PUSH1 0x1 PUSH1 0x1 PUSH1 0xA0 SHL SUB AND DUP5 DUP7 PUSH1 0x40 MLOAD PUSH2 0x363 SWAP2 SWAP1 PUSH2 0x5BF JUMP JUMPDEST PUSH0 PUSH1 0x40 MLOAD DUP1 DUP4 SUB DUP2 DUP6 DUP8 GAS CALL SWAP3 POP POP POP RETURNDATASIZE DUP1 PUSH0 DUP2 EQ PUSH2 0x39D JUMPI PUSH1 0x40 MLOAD SWAP2 POP PUSH1 0x1F NOT PUSH1 0x3F RETURNDATASIZE ADD AND DUP3 ADD PUSH1 0x40 MSTORE RETURNDATASIZE DUP3 MSTORE RETURNDATASIZE PUSH0 PUSH1 0x20 DUP5 ADD RETURNDATACOPY PUSH2 0x3A2 JUMP JUMPDEST PUSH1 0x60 SWAP2 POP JUMPDEST POP SWAP2 POP SWAP2 POP PUSH2 0x3B2 DUP7 DUP4 DUP4 PUSH2 0x3BE JUMP JUMPDEST SWAP3 POP POP POP JUMPDEST SWAP4 SWAP3 POP POP POP JUMP JUMPDEST PUSH1 0x60 DUP3 PUSH2 0x3D3 JUMPI PUSH2 0x3CE DUP3 PUSH2 0x41A JUMP JUMPDEST PUSH2 0x3B7 JUMP JUMPDEST DUP2 MLOAD ISZERO DUP1 ISZERO PUSH2 0x3EA JUMPI POP PUSH1 0x1 PUSH1 0x1 PUSH1 0xA0 SHL SUB DUP5 AND EXTCODESIZE ISZERO JUMPDEST ISZERO PUSH2 0x413 JUMPI PUSH1 0x40 MLOAD PUSH4 0x9996B315 PUSH1 0xE0 SHL DUP2 MSTORE PUSH1 0x1 PUSH1 0x1 PUSH1 0xA0 SHL SUB DUP6 AND PUSH1 0x4 DUP3 ADD MSTORE PUSH1 0x24 ADD PUSH2 0x11E JUMP JUMPDEST POP DUP1 PUSH2 0x3B7 JUMP JUMPDEST DUP1 MLOAD ISZERO PUSH2 0x42A JUMPI DUP1 MLOAD DUP1 DUP3 PUSH1 0x20 ADD REVERT JUMPDEST PUSH1 0x40 MLOAD PUSH4 0xA12F521 PUSH1 0xE1 SHL DUP2 MSTORE PUSH1 0x4 ADD PUSH1 0x40 MLOAD DUP1 SWAP2 SUB SWAP1 REVERT JUMPDEST DUP1 CALLDATALOAD PUSH1 0x1 PUSH1 0x1 PUSH1 0xA0 SHL SUB DUP2 AND DUP2 EQ PUSH2 0x459 JUMPI PUSH0 DUP1 REVERT JUMPDEST SWAP2 SWAP1 POP JUMP JUMPDEST PUSH0 DUP1 DUP4 PUSH1 0x1F DUP5 ADD SLT PUSH2 0x46E JUMPI PUSH0 DUP1 REVERT JUMPDEST POP DUP2 CALLDATALOAD PUSH8 0xFFFFFFFFFFFFFFFF DUP2 GT ISZERO PUSH2 0x485 JUMPI PUSH0 DUP1 REVERT JUMPDEST PUSH1 0x20 DUP4 ADD SWAP2 POP DUP4 PUSH1 0x20 DUP3 PUSH1 0x5 SHL DUP6 ADD ADD GT ISZERO PUSH2 0x49F JUMPI PUSH0 DUP1 REVERT JUMPDEST SWAP3 POP SWAP3 SWAP1 POP JUMP JUMPDEST PUSH0 DUP1 PUSH0 DUP1 PUSH0 PUSH1 0x60 DUP7 DUP9 SUB SLT ISZERO PUSH2 0x4BA JUMPI PUSH0 DUP1 REVERT JUMPDEST PUSH2 0x4C3 DUP7 PUSH2 0x443 JUMP JUMPDEST SWAP5 POP PUSH1 0x20 DUP7 ADD CALLDATALOAD PUSH8 0xFFFFFFFFFFFFFFFF DUP1 DUP3 GT ISZERO PUSH2 0x4DF JUMPI PUSH0 DUP1 REVERT JUMPDEST PUSH2 0x4EB DUP10 DUP4 DUP11 ADD PUSH2 0x45E JUMP JUMPDEST SWAP1 SWAP7 POP SWAP5 POP PUSH1 0x40 DUP9 ADD CALLDATALOAD SWAP2 POP DUP1 DUP3 GT ISZERO PUSH2 0x503 JUMPI PUSH0 DUP1 REVERT JUMPDEST POP PUSH2 0x510 DUP9 DUP3 DUP10 ADD PUSH2 0x45E JUMP JUMPDEST SWAP7 SWAP10 SWAP6 SWAP9 POP SWAP4 SWAP7 POP SWAP3 SWAP5 SWAP4 SWAP3 POP POP POP JUMP JUMPDEST PUSH4 0x4E487B71 PUSH1 0xE0 SHL PUSH0 MSTORE PUSH1 0x11 PUSH1 0x4 MSTORE PUSH1 0x24 PUSH0 REVERT JUMPDEST DUP2 DUP2 SUB DUP2 DUP2 GT ISZERO PUSH2 0x31D JUMPI PUSH2 0x31D PUSH2 0x521 JUMP JUMPDEST PUSH4 0x4E487B71 PUSH1 0xE0 SHL PUSH0 MSTORE PUSH1 0x32 PUSH1 0x4 MSTORE PUSH1 0x24 PUSH0 REVERT JUMPDEST DUP1 DUP3 ADD DUP1 DUP3 GT ISZERO PUSH2 0x31D JUMPI PUSH2 0x31D PUSH2 0x521 JUMP JUMPDEST PUSH0 PUSH1 0x1 DUP3 ADD PUSH2 0x580 JUMPI PUSH2 0x580 PUSH2 0x521 JUMP JUMPDEST POP PUSH1 0x1 ADD SWAP1 JUMP JUMPDEST PUSH0 PUSH1 0x20 DUP3 DUP5 SUB SLT ISZERO PUSH2 0x597 JUMPI PUSH0 DUP1 REVERT JUMPDEST PUSH2 0x31A DUP3 PUSH2 0x443 JUMP JUMPDEST PUSH0 PUSH1 0x20 DUP3 DUP5 SUB SLT ISZERO PUSH2 0x5B0 JUMPI PUSH0 DUP1 REVERT JUMPDEST DUP2 MLOAD DUP1 ISZERO ISZERO DUP2 EQ PUSH2 0x3B7 JUMPI PUSH0 DUP1 REVERT JUMPDEST PUSH0 DUP3 MLOAD PUSH0 JUMPDEST DUP2 DUP2 LT ISZERO PUSH2 0x5DE JUMPI PUSH1 0x20 DUP2 DUP7 ADD DUP2 ADD MLOAD DUP6 DUP4 ADD MSTORE ADD PUSH2 0x5C4 JUMP JUMPDEST POP PUSH0 SWAP3 ADD SWAP2 DUP3 MSTORE POP SWAP2 SWAP1 POP JUMP INVALID LOG2 PUSH5 0x6970667358 0x22 SLT KECCAK256 PUSH8 0x737DAA546CEA1352 DELEGATECALL PUSH8 0x65E9D2CB4FE24D47 0xD2 0xCA 0xC9 GT 0xBC SWAP3 0xAE 0x4E CHAINID DUP7 PUSH18 0x1C5664736F6C634300081400330000000000 "
		},
		"gasEstimates": {
			"creation": {
				"codeDepositCost": "313800",
				"executionCost": "353",
				"totalCost": "314153"
			},
			"external": {
				"sendTokens(address,address[],uint256[])": "infinite"
			}
		},
		"methodIdentifiers": {
			"sendTokens(address,address[],uint256[])": "e83f967b"
		}
	},
	"abi": [
		{
			"inputs": [
				{
					"internalType": "address",
					"name": "target",
					"type": "address"
				}
			],
			"name": "AddressEmptyCode",
			"type": "error"
		},
		{
			"inputs": [
				{
					"internalType": "address",
					"name": "account",
					"type": "address"
				}
			],
			"name": "AddressInsufficientBalance",
			"type": "error"
		},
		{
			"inputs": [],
			"name": "FailedInnerCall",
			"type": "error"
		},
		{
			"inputs": [
				{
					"internalType": "address",
					"name": "token",
					"type": "address"
				}
			],
			"name": "SafeERC20FailedOperation",
			"type": "error"
		},
		{
			"inputs": [
				{
					"internalType": "address",
					"name": "tokenAddress",
					"type": "address"
				},
				{
					"internalType": "address[]",
					"name": "recievers",
					"type": "address[]"
				},
				{
					"internalType": "uint256[]",
					"name": "amount",
					"type": "uint256[]"
				}
			],
			"name": "sendTokens",
			"outputs": [],
			"stateMutability": "nonpayable",
			"type": "function"
		}
	]
}